{
  "_format": "hh-sol-artifact-1",
  "contractName": "AirWild2Sale",
  "sourceName": "contracts/AirWild2Sale.sol",
  "abi": [
    {
      "anonymous": false,
      "inputs": [
        {
          "indexed": true,
          "internalType": "address",
          "name": "previousOwner",
          "type": "address"
        },
        {
          "indexed": true,
          "internalType": "address",
          "name": "newOwner",
          "type": "address"
        }
      ],
      "name": "OwnershipTransferred",
      "type": "event"
    },
    {
      "anonymous": false,
      "inputs": [
        {
          "indexed": false,
          "internalType": "address",
          "name": "buyer",
          "type": "address"
        },
        {
          "indexed": false,
          "internalType": "uint256",
          "name": "amount",
          "type": "uint256"
        }
      ],
      "name": "RefundedEther",
      "type": "event"
    },
    {
      "anonymous": false,
      "inputs": [
        {
          "indexed": false,
          "internalType": "uint256",
          "name": "block",
          "type": "uint256"
        }
      ],
      "name": "SaleStarted",
      "type": "event"
    },
    {
      "inputs": [
        {
          "internalType": "uint256",
          "name": "parentDomainId_",
          "type": "uint256"
        },
        {
          "internalType": "uint256",
          "name": "price_",
          "type": "uint256"
        },
        {
          "internalType": "contract IRegistrar",
          "name": "zNSRegistrar_",
          "type": "address"
        },
        {
          "internalType": "address",
          "name": "sellerWallet_",
          "type": "address"
        },
        {
          "internalType": "uint256[]",
          "name": "mintlistDurations_",
          "type": "uint256[]"
        },
        {
          "internalType": "bytes32[]",
          "name": "merkleRoots_",
          "type": "bytes32[]"
        },
        {
          "internalType": "uint256",
          "name": "startingMetadataIndex_",
          "type": "uint256"
        },
        {
          "internalType": "string",
          "name": "baseFolderHash_",
          "type": "string"
        },
        {
          "internalType": "uint256",
          "name": "numForSale_",
          "type": "uint256"
        }
      ],
      "name": "__AirWild2Sale_init",
      "outputs": [],
      "stateMutability": "nonpayable",
      "type": "function"
    },
    {
      "inputs": [],
      "name": "baseFolderHash",
      "outputs": [
        {
          "internalType": "string",
          "name": "",
          "type": "string"
        }
      ],
      "stateMutability": "view",
      "type": "function"
    },
    {
      "inputs": [],
      "name": "currentMerkleRootIndex",
      "outputs": [
        {
          "internalType": "uint256",
          "name": "",
          "type": "uint256"
        }
      ],
      "stateMutability": "view",
      "type": "function"
    },
    {
      "inputs": [
        {
          "internalType": "address",
          "name": "",
          "type": "address"
        }
      ],
      "name": "domainsPurchasedByAccount",
      "outputs": [
        {
          "internalType": "uint256",
          "name": "",
          "type": "uint256"
        }
      ],
      "stateMutability": "view",
      "type": "function"
    },
    {
      "inputs": [],
      "name": "domainsSold",
      "outputs": [
        {
          "internalType": "uint256",
          "name": "",
          "type": "uint256"
        }
      ],
      "stateMutability": "view",
      "type": "function"
    },
    {
      "inputs": [
        {
          "internalType": "uint256",
          "name": "index",
          "type": "uint256"
        }
      ],
      "name": "getNftByIndex",
      "outputs": [
        {
          "internalType": "string",
          "name": "",
          "type": "string"
        }
      ],
      "stateMutability": "view",
      "type": "function"
    },
    {
      "inputs": [
        {
          "internalType": "uint256",
          "name": "",
          "type": "uint256"
        }
      ],
      "name": "mintlistDurations",
      "outputs": [
        {
          "internalType": "uint256",
          "name": "",
          "type": "uint256"
        }
      ],
      "stateMutability": "view",
      "type": "function"
    },
    {
      "inputs": [
        {
          "internalType": "uint256",
          "name": "",
          "type": "uint256"
        }
      ],
      "name": "mintlistMerkleRoots",
      "outputs": [
        {
          "internalType": "bytes32",
          "name": "",
          "type": "bytes32"
        }
      ],
      "stateMutability": "view",
      "type": "function"
    },
    {
      "inputs": [],
      "name": "owner",
      "outputs": [
        {
          "internalType": "address",
          "name": "",
          "type": "address"
        }
      ],
      "stateMutability": "view",
      "type": "function"
    },
    {
      "inputs": [],
      "name": "parentDomainId",
      "outputs": [
        {
          "internalType": "uint256",
          "name": "",
          "type": "uint256"
        }
      ],
      "stateMutability": "view",
      "type": "function"
    },
    {
      "inputs": [],
      "name": "paused",
      "outputs": [
        {
          "internalType": "bool",
          "name": "",
          "type": "bool"
        }
      ],
      "stateMutability": "view",
      "type": "function"
    },
    {
      "inputs": [
        {
          "internalType": "uint8",
          "name": "count",
          "type": "uint8"
        },
        {
          "internalType": "uint256",
          "name": "index",
          "type": "uint256"
        },
        {
          "internalType": "uint256",
          "name": "purchaseLimit",
          "type": "uint256"
        },
        {
          "internalType": "bytes32[]",
          "name": "merkleProof",
          "type": "bytes32[]"
        }
      ],
      "name": "purchaseDomains",
      "outputs": [],
      "stateMutability": "payable",
      "type": "function"
    },
    {
      "inputs": [],
      "name": "releaseDomain",
      "outputs": [],
      "stateMutability": "nonpayable",
      "type": "function"
    },
    {
      "inputs": [],
      "name": "renounceOwnership",
      "outputs": [],
      "stateMutability": "nonpayable",
      "type": "function"
    },
    {
      "inputs": [],
      "name": "salePrice",
      "outputs": [
        {
          "internalType": "uint256",
          "name": "",
          "type": "uint256"
        }
      ],
      "stateMutability": "view",
      "type": "function"
    },
    {
      "inputs": [],
      "name": "saleStartBlock",
      "outputs": [
        {
          "internalType": "uint256",
          "name": "",
          "type": "uint256"
        }
      ],
      "stateMutability": "view",
      "type": "function"
    },
    {
      "inputs": [],
      "name": "saleStarted",
      "outputs": [
        {
          "internalType": "bool",
          "name": "",
          "type": "bool"
        }
      ],
      "stateMutability": "view",
      "type": "function"
    },
    {
      "inputs": [],
      "name": "sellerWallet",
      "outputs": [
        {
          "internalType": "address",
          "name": "",
          "type": "address"
        }
      ],
      "stateMutability": "view",
      "type": "function"
    },
    {
      "inputs": [
        {
          "internalType": "uint256",
          "name": "forSale",
          "type": "uint256"
        }
      ],
      "name": "setAmountOfDomainsForSale",
      "outputs": [],
      "stateMutability": "nonpayable",
      "type": "function"
    },
    {
      "inputs": [
        {
          "internalType": "string",
          "name": "folderHash",
          "type": "string"
        }
      ],
      "name": "setBaseFolderHash",
      "outputs": [],
      "stateMutability": "nonpayable",
      "type": "function"
    },
    {
      "inputs": [
        {
          "internalType": "uint8",
          "name": "newIndex_",
          "type": "uint8"
        }
      ],
      "name": "setMerkleRootIndex",
      "outputs": [],
      "stateMutability": "nonpayable",
      "type": "function"
    },
    {
      "inputs": [
        {
          "internalType": "bytes32[]",
          "name": "roots",
          "type": "bytes32[]"
        }
      ],
      "name": "setMerkleRoots",
      "outputs": [],
      "stateMutability": "nonpayable",
      "type": "function"
    },
    {
      "inputs": [
        {
          "internalType": "uint256",
          "name": "index",
          "type": "uint256"
        },
        {
          "internalType": "uint256",
          "name": "durationInBlocks",
          "type": "uint256"
        }
      ],
      "name": "setMintlistDuration",
      "outputs": [],
      "stateMutability": "nonpayable",
      "type": "function"
    },
    {
      "inputs": [
        {
          "internalType": "uint256",
          "name": "parentId",
          "type": "uint256"
        }
      ],
      "name": "setParentDomainId",
      "outputs": [],
      "stateMutability": "nonpayable",
      "type": "function"
    },
    {
      "inputs": [
        {
          "internalType": "bool",
          "name": "pauseStatus",
          "type": "bool"
        }
      ],
      "name": "setPauseStatus",
      "outputs": [],
      "stateMutability": "nonpayable",
      "type": "function"
    },
    {
      "inputs": [
        {
          "internalType": "contract IRegistrar",
          "name": "zNSRegistrar_",
          "type": "address"
        }
      ],
      "name": "setRegistrar",
      "outputs": [],
      "stateMutability": "nonpayable",
      "type": "function"
    },
    {
      "inputs": [
        {
          "internalType": "uint256",
          "name": "price",
          "type": "uint256"
        }
      ],
      "name": "setSalePrice",
      "outputs": [],
      "stateMutability": "nonpayable",
      "type": "function"
    },
    {
      "inputs": [
        {
          "internalType": "address",
          "name": "wallet",
          "type": "address"
        }
      ],
      "name": "setSellerWallet",
      "outputs": [],
      "stateMutability": "nonpayable",
      "type": "function"
    },
    {
      "inputs": [
        {
          "internalType": "uint256",
          "name": "index",
          "type": "uint256"
        }
      ],
      "name": "setStartIndex",
      "outputs": [],
      "stateMutability": "nonpayable",
      "type": "function"
    },
    {
      "inputs": [],
      "name": "startSale",
      "outputs": [],
      "stateMutability": "nonpayable",
      "type": "function"
    },
    {
      "inputs": [],
      "name": "startingMetadataIndex",
      "outputs": [
        {
          "internalType": "uint256",
          "name": "",
          "type": "uint256"
        }
      ],
      "stateMutability": "view",
      "type": "function"
    },
    {
      "inputs": [],
      "name": "stopSale",
      "outputs": [],
      "stateMutability": "nonpayable",
      "type": "function"
    },
    {
      "inputs": [],
      "name": "totalForSale",
      "outputs": [
        {
          "internalType": "uint256",
          "name": "",
          "type": "uint256"
        }
      ],
      "stateMutability": "view",
      "type": "function"
    },
    {
      "inputs": [
        {
          "internalType": "address",
          "name": "newOwner",
          "type": "address"
        }
      ],
      "name": "transferOwnership",
      "outputs": [],
      "stateMutability": "nonpayable",
      "type": "function"
    },
    {
      "inputs": [],
      "name": "zNSRegistrar",
      "outputs": [
        {
          "internalType": "contract IRegistrar",
          "name": "",
          "type": "address"
        }
      ],
      "stateMutability": "view",
      "type": "function"
    }
  ],
  "bytecode": "0x608060405234801561001057600080fd5b506126ac806100206000396000f3fe6080604052600436106102045760003560e01c8063a5060c8411610118578063e36b0b37116100a0578063f2279dd61161006f578063f2279dd614610592578063f2fde38b146105b2578063f51f96dd146105d2578063faab9d39146105e8578063fb8b74c21461060857610204565b8063e36b0b371461051d578063e756ecb414610532578063eff8362514610552578063f1c1f9ac1461057257610204565b8063c38bb537116100e7578063c38bb53714610491578063c623d0f2146104b1578063dede997a146104c7578063df47f4b8146104e7578063e25acff31461050757610204565b8063a5060c841461041a578063a5808c9114610447578063b66a0e5d1461045c578063bc07aa641461047157610204565b80635c474f9e1161019b578063715018a61161016a578063715018a6146103845780638460a5de146103995780638da5cb5b146103d15780638eaefd3a146103ef5780639544e7111461040557610204565b80635c474f9e146102f35780635c975abb1461031d5780635ff7d9d514610337578063652854621461035757610204565b806320027275116101d7578063200272751461028757806321405ae61461029d578063470edcb1146102bd5780634b9c1e0d146102dd57610204565b80630557d3fd146102095780630e9be3bb1461021e57806316ecc1311461023e5780631919fed714610267575b600080fd5b61021c6102173660046122b3565b610628565b005b34801561022a57600080fd5b5061021c610239366004612299565b61064f565b34801561024a57600080fd5b50610254606e5481565b6040519081526020015b60405180910390f35b34801561027357600080fd5b5061021c610282366004612171565b61076b565b34801561029357600080fd5b50610254606c5481565b3480156102a957600080fd5b5061021c6102b8366004612131565b6107fc565b3480156102c957600080fd5b506102546102d8366004612171565b6108d2565b3480156102e957600080fd5b5061025460725481565b3480156102ff57600080fd5b50606b5461030d9060ff1681565b604051901515815260200161025e565b34801561032957600080fd5b50606d5461030d9060ff1681565b34801561034357600080fd5b5061021c610352366004612171565b6108f3565b34801561036357600080fd5b506102546103723660046120bb565b60736020526000908152604090205481565b34801561039057600080fd5b5061021c610992565b3480156103a557600080fd5b506068546103b9906001600160a01b031681565b6040516001600160a01b03909116815260200161025e565b3480156103dd57600080fd5b506033546001600160a01b03166103b9565b3480156103fb57600080fd5b5061025460695481565b34801561041157600080fd5b5061021c6109e6565b34801561042657600080fd5b5061043a610435366004612171565b610ad6565b60405161025e9190612449565b34801561045357600080fd5b5061043a610b18565b34801561046857600080fd5b5061021c610ba6565b34801561047d57600080fd5b5061021c61048c3660046120de565b610c90565b34801561049d57600080fd5b5061021c6104ac366004612111565b610e05565b3480156104bd57600080fd5b50610254606a5481565b3480156104d357600080fd5b5061021c6104e2366004612171565b610eab565b3480156104f357600080fd5b506065546103b9906001600160a01b031681565b34801561051357600080fd5b5061025460665481565b34801561052957600080fd5b5061021c610ef8565b34801561053e57600080fd5b5061021c61054d3660046121c2565b610f91565b34801561055e57600080fd5b5061025461056d366004612171565b6110d9565b34801561057e57600080fd5b5061021c61058d3660046121a1565b6110e9565b34801561059e57600080fd5b5061021c6105ad3660046120bb565b611221565b3480156105be57600080fd5b5061021c6105cd3660046120bb565b6112d7565b3480156105de57600080fd5b5061025460675481565b3480156105f457600080fd5b5061021c6106033660046120bb565b611390565b34801561061457600080fd5b5061021c610623366004612171565b61149f565b61063333868561152f565b61063f848484846117b5565b610648856118bf565b5050505050565b6033546001600160a01b0316331461069c5760405162461bcd60e51b8152602060048201819052602482015260008051602061265783398151915260448201526064015b60405180910390fd5b8060ff1660725414156106de5760405162461bcd60e51b815260206004820152600a6024820152690a6c2daca40d2dcc8caf60b31b6044820152606401610693565b6000801b60708260ff168154811061070657634e487b7160e01b600052603260045260246000fd5b9060005260206000200154141561075f5760405162461bcd60e51b815260206004820181905260248201527f4e6f206d696e746c6973742073746f726564206174207468617420696e6465786044820152606401610693565b43606c5560ff16607255565b6033546001600160a01b031633146107b35760405162461bcd60e51b815260206004820181905260248201526000805160206126578339815191526044820152606401610693565b8060675414156107f75760405162461bcd60e51b815260206004820152600f60248201526e4e6f207072696365206368616e676560881b6044820152606401610693565b606755565b6033546001600160a01b031633146108445760405162461bcd60e51b815260206004820181905260248201526000805160206126578339815191526044820152606401610693565b606f6040516108539190612418565b6040518091039020828260405161086b929190612408565b604051809103902014156108c15760405162461bcd60e51b815260206004820152601d60248201527f43616e6e6f742073657420746f2073616d6520666f6c646572207572690000006044820152606401610693565b6108cd606f8383611ee6565b505050565b607181815481106108e257600080fd5b600091825260209091200154905081565b6033546001600160a01b0316331461093b5760405162461bcd60e51b815260206004820181905260248201526000805160206126578339815191526044820152606401610693565b606e5481141561098d5760405162461bcd60e51b815260206004820152601c60248201527f43616e6e6f742073657420746f207468652073616d6520696e646578000000006044820152606401610693565b606e55565b6033546001600160a01b031633146109da5760405162461bcd60e51b815260206004820181905260248201526000805160206126578339815191526044820152606401610693565b6109e460006118f0565b565b6033546001600160a01b03163314610a2e5760405162461bcd60e51b815260206004820181905260248201526000805160206126578339815191526044820152606401610693565b6065546001600160a01b03166323b872dd30610a526033546001600160a01b031690565b6066546040517fffffffff0000000000000000000000000000000000000000000000000000000060e086901b1681526001600160a01b0393841660048201529290911660248301526044820152606401600060405180830381600087803b158015610abc57600080fd5b505af1158015610ad0573d6000803e3d6000fd5b50505050565b6060606f610af083606e54610aeb9190612507565b611942565b604051602001610b01929190612424565b60405160208183030381529060405290505b919050565b606f8054610b2590612595565b80601f0160208091040260200160405190810160405280929190818152602001828054610b5190612595565b8015610b9e5780601f10610b7357610100808354040283529160200191610b9e565b820191906000526020600020905b815481529060010190602001808311610b8157829003601f168201915b505050505081565b6033546001600160a01b03163314610bee5760405162461bcd60e51b815260206004820181905260248201526000805160206126578339815191526044820152606401610693565b606b5460ff1615610c415760405162461bcd60e51b815260206004820152601460248201527f53616c6520616c726561647920737461727465640000000000000000000000006044820152606401610693565b606b805460ff1916600117905543606c8190556040517fa78c547613f6306e7a70d1bd161c18a496cae1eeb8d4f9e58b60d69ad72ddf5891610c869190815260200190565b60405180910390a1565b6033546001600160a01b03163314610cd85760405162461bcd60e51b815260206004820181905260248201526000805160206126578339815191526044820152606401610693565b6000815111610d295760405162461bcd60e51b815260206004820152601160248201527f456d70747920726f6f74732061727261790000000000000000000000000000006044820152606401610693565b8051607054148015610db75760005b8251811015610db557828181518110610d6157634e487b7160e01b600052603260045260246000fd5b602002602001015160708281548110610d8a57634e487b7160e01b600052603260045260246000fd5b906000526020600020015414610da35760009150610db5565b80610dad816125d0565b915050610d38565b505b8015610df25760405162461bcd60e51b815260206004820152600a60248201526973616d6520726f6f747360b01b6044820152606401610693565b81516108cd906070906020850190611f6a565b6033546001600160a01b03163314610e4d5760405162461bcd60e51b815260206004820181905260248201526000805160206126578339815191526044820152606401610693565b606d5460ff1615158115151415610e985760405162461bcd60e51b815260206004820152600f60248201526e4e6f207374617465206368616e676560881b6044820152606401610693565b606d805460ff1916911515919091179055565b6033546001600160a01b03163314610ef35760405162461bcd60e51b815260206004820181905260248201526000805160206126578339815191526044820152606401610693565b606955565b6033546001600160a01b03163314610f405760405162461bcd60e51b815260206004820181905260248201526000805160206126578339815191526044820152606401610693565b606b5460ff16610f855760405162461bcd60e51b815260206004820152601060248201526f14d85b19481b9bdd081cdd185c9d195960821b6044820152606401610693565b606b805460ff19169055565b600054610100900460ff1680610faa575060005460ff16155b610fc65760405162461bcd60e51b81526004016106939061245c565b600054610100900460ff16158015610fe8576000805461ffff19166101011790555b610ff0611a7d565b85518751146110415760405162461bcd60e51b815260206004820152601c60248201527f4d696e746c69737420616e64206d65726b6c65206d69736d61746368000000006044820152606401610693565b60668b905560678a9055606580546001600160a01b03808c166001600160a01b03199283161790925560688054928b1692909116919091179055865161108e9060719060208a0190611f6a565b5085516110a2906070906020890190611f6a565b50606e8590556110b4606f8585611ee6565b50606982905580156110cc576000805461ff00191690555b5050505050505050505050565b607081815481106108e257600080fd5b6033546001600160a01b031633146111315760405162461bcd60e51b815260206004820181905260248201526000805160206126578339815191526044820152606401610693565b60715482106111825760405162461bcd60e51b815260206004820152601360248201527f496e646578206f7574206f6620626f756e6473000000000000000000000000006044820152606401610693565b80607183815481106111a457634e487b7160e01b600052603260045260246000fd5b906000526020600020015414156111ef5760405162461bcd60e51b815260206004820152600f60248201526e4e6f207374617465206368616e676560881b6044820152606401610693565b806071838154811061121157634e487b7160e01b600052603260045260246000fd5b6000918252602090912001555050565b6033546001600160a01b031633146112695760405162461bcd60e51b815260206004820181905260248201526000805160206126578339815191526044820152606401610693565b6068546001600160a01b03828116911614156112b55760405162461bcd60e51b815260206004820152600b60248201526a14d85b594815d85b1b195d60aa1b6044820152606401610693565b606880546001600160a01b0319166001600160a01b0392909216919091179055565b6033546001600160a01b0316331461131f5760405162461bcd60e51b815260206004820181905260248201526000805160206126578339815191526044820152606401610693565b6001600160a01b0381166113845760405162461bcd60e51b815260206004820152602660248201527f4f776e61626c653a206e6577206f776e657220697320746865207a65726f206160448201526564647265737360d01b6064820152608401610693565b61138d816118f0565b50565b6033546001600160a01b031633146113d85760405162461bcd60e51b815260206004820181905260248201526000805160206126578339815191526044820152606401610693565b6065546001600160a01b03828116911614156114275760405162461bcd60e51b815260206004820152600e60248201526d29b0b6b2903932b3b4b9ba3930b960911b6044820152606401610693565b6001600160a01b03811661147d5760405162461bcd60e51b815260206004820152601960248201527f526567697374726172206e6f7420696e697469616c697a6564000000000000006044820152606401610693565b606580546001600160a01b0319166001600160a01b0392909216919091179055565b6033546001600160a01b031633146114e75760405162461bcd60e51b815260206004820181905260248201526000805160206126578339815191526044820152606401610693565b80606654141561152a5760405162461bcd60e51b815260206004820152600e60248201526d14d85b59481c185c995b9d081a5960921b6044820152606401610693565b606655565b60008260ff16116115825760405162461bcd60e51b815260206004820152601360248201527f5a65726f20707572636861736520636f756e74000000000000000000000000006044820152606401610693565b606954606a54106115d55760405162461bcd60e51b815260206004820152601860248201527f4e6f20646f6d61696e73206c65667420666f722073616c6500000000000000006044820152606401610693565b6001600160a01b03831660009081526073602052604090205481906115fe9060ff851690612507565b111561164c5760405162461bcd60e51b815260206004820152601860248201527f50757263686173696e67206265796f6e64206c696d69742e00000000000000006044820152606401610693565b8160ff1660675461165d9190612533565b3410156116ac5760405162461bcd60e51b815260206004820152601c60248201527f4e6f7420656e6f7567682066756e647320696e207075726368617365000000006044820152606401610693565b606d5460ff16156116e85760405162461bcd60e51b81526020600482015260066024820152651c185d5cd95960d21b6044820152606401610693565b606b5460ff1661173a5760405162461bcd60e51b815260206004820181905260248201527f53616c65206861736e27742073746172746564206f722068617320656e6465646044820152606401610693565b60716072548154811061175d57634e487b7160e01b600052603260045260246000fd5b9060005260206000200154606c546117759190612507565b4311156108cd5760405162461bcd60e51b815260206004820152600e60248201526d14d85b19481a185cc8195b99195960921b6044820152606401610693565b6040805160208082018790523360601b6bffffffffffffffffffffffff191682840152605480830187905283518084039091018152607490920190925280519101206072546070805460009290811061181e57634e487b7160e01b600052603260045260246000fd5b9060005260206000200154905061186b848480806020026020016040519081016040528093929190818152602001838360200280828437600092019190915250859250869150611af89050565b6118b75760405162461bcd60e51b815260206004820152601460248201527f496e76616c6964204d65726b6c652050726f6f660000000000000000000000006044820152606401610693565b505050505050565b60006118ca82611bb5565b90506000816067546118dc9190612533565b90506118e781611c2f565b6108cd82611d04565b603380546001600160a01b038381166001600160a01b0319831681179093556040519116919082907f8be0079c531659141344cd1fd0a4f28419497f9722a3daafe3b4186f6b6457e090600090a35050565b60608161196757506040805180820190915260018152600360fc1b6020820152610b13565b8160005b8115611991578061197b816125d0565b915061198a9050600a8361251f565b915061196b565b60008167ffffffffffffffff8111156119ba57634e487b7160e01b600052604160045260246000fd5b6040519080825280601f01601f1916602001820160405280156119e4576020820181803683370190505b5090505b8415611a75576119f9600183612552565b9150611a06600a866125eb565b611a11906030612507565b60f81b818381518110611a3457634e487b7160e01b600052603260045260246000fd5b60200101907effffffffffffffffffffffffffffffffffffffffffffffffffffffffffffff1916908160001a905350611a6e600a8661251f565b94506119e8565b949350505050565b600054610100900460ff1680611a96575060005460ff16155b611ab25760405162461bcd60e51b81526004016106939061245c565b600054610100900460ff16158015611ad4576000805461ffff19166101011790555b611adc611e1c565b611ae4611e86565b801561138d576000805461ff001916905550565b600081815b8551811015611baa576000868281518110611b2857634e487b7160e01b600052603260045260246000fd5b60200260200101519050808311611b6a576040805160208101859052908101829052606001604051602081830303815290604052805190602001209250611b97565b60408051602081018390529081018490526060016040516020818303038152906040528051906020012092505b5080611ba2816125d0565b915050611afd565b509092149392505050565b606954606a5460009160ff841691611bce908390612507565b1115611be757606a54606954611be49190612552565b90505b80606a6000828254611bf99190612507565b909155505033600090815260736020526040902054611c19908290612507565b3360009081526073602052604090205592915050565b6068546040516001600160a01b039091169082156108fc029083906000818181858888f19350505050158015611c69573d6000803e3d6000fd5b506000611c768234612552565b111561138d57336108fc611c8a8334612552565b6040518115909202916000818181858888f19350505050158015611cb2573d6000803e3d6000fd5b507f5e90a7af0e257106295d4cabfe31a7f0bc7100b422f59e277d09b25932f9aa7433611cdf8334612552565b604080516001600160a01b03909316835260208301919091520160405180910390a150565b60005b81811015611e1857606554606654606a54606e546001600160a01b03909316926334038d489291611d549186918891611d409190612507565b611d4a9190612552565b610aeb9190612507565b606854606a54606e546001600160a01b0390921691611d8e9188918a91611d7a91612507565b611d849190612552565b6104359190612507565b60006001336040518863ffffffff1660e01b8152600401611db597969594939291906124aa565b602060405180830381600087803b158015611dcf57600080fd5b505af1158015611de3573d6000803e3d6000fd5b505050506040513d601f19601f82011682018060405250810190611e079190612189565b50611e11816125d0565b9050611d07565b5050565b600054610100900460ff1680611e35575060005460ff16155b611e515760405162461bcd60e51b81526004016106939061245c565b600054610100900460ff16158015611ae4576000805461ffff1916610101179055801561138d576000805461ff001916905550565b600054610100900460ff1680611e9f575060005460ff16155b611ebb5760405162461bcd60e51b81526004016106939061245c565b600054610100900460ff16158015611edd576000805461ffff19166101011790555b611ae4336118f0565b828054611ef290612595565b90600052602060002090601f016020900481019282611f145760008555611f5a565b82601f10611f2d5782800160ff19823516178555611f5a565b82800160010185558215611f5a579182015b82811115611f5a578235825591602001919060010190611f3f565b50611f66929150611fa5565b5090565b828054828255906000526020600020908101928215611f5a579160200282015b82811115611f5a578251825591602001919060010190611f8a565b5b80821115611f665760008155600101611fa6565b8035610b1381612641565b600082601f830112611fd5578081fd5b8135602067ffffffffffffffff80831115611ff257611ff261262b565b8260051b604051601f19603f830116810181811084821117156120175761201761262b565b60405284815283810192508684018288018501891015612035578687fd5b8692505b85831015612057578035845292840192600192909201918401612039565b50979650505050505050565b60008083601f840112612074578182fd5b50813567ffffffffffffffff81111561208b578182fd5b6020830191508360208285010111156120a357600080fd5b9250929050565b803560ff81168114610b1357600080fd5b6000602082840312156120cc578081fd5b81356120d781612641565b9392505050565b6000602082840312156120ef578081fd5b813567ffffffffffffffff811115612105578182fd5b611a7584828501611fc5565b600060208284031215612122578081fd5b813580151581146120d7578182fd5b60008060208385031215612143578081fd5b823567ffffffffffffffff811115612159578182fd5b61216585828601612063565b90969095509350505050565b600060208284031215612182578081fd5b5035919050565b60006020828403121561219a578081fd5b5051919050565b600080604083850312156121b3578182fd5b50508035926020909101359150565b6000806000806000806000806000806101208b8d0312156121e1578586fd5b8a35995060208b013598506121f860408c01611fba565b975061220660608c01611fba565b965060808b013567ffffffffffffffff80821115612222578788fd5b61222e8e838f01611fc5565b975060a08d0135915080821115612243578687fd5b61224f8e838f01611fc5565b965060c08d0135955060e08d013591508082111561226b578485fd5b506122788d828e01612063565b915080945050809250506101008b013590509295989b9194979a5092959850565b6000602082840312156122aa578081fd5b6120d7826120aa565b6000806000806000608086880312156122ca578081fd5b6122d3866120aa565b94506020860135935060408601359250606086013567ffffffffffffffff808211156122fd578283fd5b818801915088601f830112612310578283fd5b81358181111561231e578384fd5b8960208260051b8501011115612332578384fd5b9699959850939650602001949392505050565b8054600090600181811c908083168061235f57607f831692505b602080841082141561237f57634e487b7160e01b86526022600452602486fd5b81801561239357600181146123a4576123d0565b60ff198616895284890196506123d0565b876000528160002060005b868110156123c85781548b8201529085019083016123af565b505084890196505b50505050505092915050565b600081518084526123f4816020860160208601612569565b601f01601f19169290920160200192915050565b6000828483379101908152919050565b60006120d78284612345565b60006124308285612345565b8351612440818360208801612569565b01949350505050565b6000602082526120d760208301846123dc565b6020808252602e908201527f496e697469616c697a61626c653a20636f6e747261637420697320616c72656160408201526d191e481a5b9a5d1a585b1a5e995960921b606082015260800190565b600088825260e060208301526124c360e08301896123dc565b6001600160a01b03808916604085015283820360608501526124e582896123dc565b608085019790975294151560a08401525050911660c090910152949350505050565b6000821982111561251a5761251a6125ff565b500190565b60008261252e5761252e612615565b500490565b600081600019048311821515161561254d5761254d6125ff565b500290565b600082821015612564576125646125ff565b500390565b60005b8381101561258457818101518382015260200161256c565b83811115610ad05750506000910152565b600181811c908216806125a957607f821691505b602082108114156125ca57634e487b7160e01b600052602260045260246000fd5b50919050565b60006000198214156125e4576125e46125ff565b5060010190565b6000826125fa576125fa612615565b500690565b634e487b7160e01b600052601160045260246000fd5b634e487b7160e01b600052601260045260246000fd5b634e487b7160e01b600052604160045260246000fd5b6001600160a01b038116811461138d57600080fdfe4f776e61626c653a2063616c6c6572206973206e6f7420746865206f776e6572a26469706673582212201af0d23f1ef7c6ee265058e8f44aba96c65691c502454af3c142ed017f60896d64736f6c63430008030033",
  "linkReferences": {},
  "deployedLinkReferences": {}
}