{
  "_format": "hh-sol-artifact-1",
  "contractName": "Sale",
  "sourceName": "contracts/Sale.sol",
  "abi": [
    {
      "anonymous": false,
      "inputs": [
        {
          "indexed": true,
          "internalType": "uint256",
          "name": "saleId",
          "type": "uint256"
        },
        {
          "indexed": false,
          "internalType": "address",
          "name": "buyer",
          "type": "address"
        },
        {
          "indexed": false,
          "internalType": "uint256",
          "name": "parentDomainId",
          "type": "uint256"
        },
        {
          "indexed": false,
          "internalType": "uint256",
          "name": "salePrice",
          "type": "uint256"
        },
        {
          "indexed": false,
          "internalType": "uint256",
          "name": "quantity",
          "type": "uint256"
        }
      ],
      "name": "DomainsPurchased",
      "type": "event"
    },
    {
      "anonymous": false,
      "inputs": [
        {
          "indexed": true,
          "internalType": "uint256",
          "name": "saleId",
          "type": "uint256"
        },
        {
          "indexed": false,
          "internalType": "bytes32",
          "name": "mintlistMerkleRoot",
          "type": "bytes32"
        }
      ],
      "name": "MintlistMerkleRootChanegd",
      "type": "event"
    },
    {
      "anonymous": false,
      "inputs": [
        {
          "indexed": true,
          "internalType": "uint256",
          "name": "saleId",
          "type": "uint256"
        },
        {
          "indexed": false,
          "internalType": "uint256",
          "name": "mintlistSaleDuration",
          "type": "uint256"
        }
      ],
      "name": "MintlistSaleDurationChanged",
      "type": "event"
    },
    {
      "anonymous": false,
      "inputs": [
        {
          "indexed": false,
          "internalType": "address",
          "name": "account",
          "type": "address"
        }
      ],
      "name": "Paused",
      "type": "event"
    },
    {
      "anonymous": false,
      "inputs": [
        {
          "indexed": true,
          "internalType": "uint256",
          "name": "saleId",
          "type": "uint256"
        },
        {
          "indexed": false,
          "internalType": "uint256",
          "name": "salePrice",
          "type": "uint256"
        }
      ],
      "name": "PriceChanged",
      "type": "event"
    },
    {
      "anonymous": false,
      "inputs": [
        {
          "indexed": true,
          "internalType": "uint256",
          "name": "saleId",
          "type": "uint256"
        },
        {
          "indexed": false,
          "internalType": "uint256",
          "name": "salePrice",
          "type": "uint256"
        }
      ],
      "name": "PrivatePriceChanged",
      "type": "event"
    },
    {
      "anonymous": false,
      "inputs": [
        {
          "indexed": true,
          "internalType": "uint256",
          "name": "saleId",
          "type": "uint256"
        },
        {
          "indexed": false,
          "internalType": "uint256",
          "name": "publicSaleLimit",
          "type": "uint256"
        }
      ],
      "name": "PublicSaleLimitChanged",
      "type": "event"
    },
    {
      "anonymous": false,
      "inputs": [
        {
          "indexed": false,
          "internalType": "address",
          "name": "buyer",
          "type": "address"
        },
        {
          "indexed": false,
          "internalType": "uint256",
          "name": "amount",
          "type": "uint256"
        },
        {
          "indexed": false,
          "internalType": "uint256",
          "name": "saleId",
          "type": "uint256"
        }
      ],
      "name": "RefundedEther",
      "type": "event"
    },
    {
      "anonymous": false,
      "inputs": [
        {
          "indexed": true,
          "internalType": "bytes32",
          "name": "role",
          "type": "bytes32"
        },
        {
          "indexed": true,
          "internalType": "bytes32",
          "name": "previousAdminRole",
          "type": "bytes32"
        },
        {
          "indexed": true,
          "internalType": "bytes32",
          "name": "newAdminRole",
          "type": "bytes32"
        }
      ],
      "name": "RoleAdminChanged",
      "type": "event"
    },
    {
      "anonymous": false,
      "inputs": [
        {
          "indexed": true,
          "internalType": "bytes32",
          "name": "role",
          "type": "bytes32"
        },
        {
          "indexed": true,
          "internalType": "address",
          "name": "account",
          "type": "address"
        },
        {
          "indexed": true,
          "internalType": "address",
          "name": "sender",
          "type": "address"
        }
      ],
      "name": "RoleGranted",
      "type": "event"
    },
    {
      "anonymous": false,
      "inputs": [
        {
          "indexed": true,
          "internalType": "bytes32",
          "name": "role",
          "type": "bytes32"
        },
        {
          "indexed": true,
          "internalType": "address",
          "name": "account",
          "type": "address"
        },
        {
          "indexed": true,
          "internalType": "address",
          "name": "sender",
          "type": "address"
        }
      ],
      "name": "RoleRevoked",
      "type": "event"
    },
    {
      "anonymous": false,
      "inputs": [
        {
          "indexed": true,
          "internalType": "uint256",
          "name": "saleId",
          "type": "uint256"
        },
        {
          "indexed": true,
          "internalType": "uint256",
          "name": "parentDomainId",
          "type": "uint256"
        },
        {
          "indexed": false,
          "internalType": "uint256",
          "name": "salePrice",
          "type": "uint256"
        },
        {
          "indexed": false,
          "internalType": "uint256",
          "name": "privateSalePrice",
          "type": "uint256"
        },
        {
          "indexed": false,
          "internalType": "address",
          "name": "sellerWallet",
          "type": "address"
        },
        {
          "indexed": false,
          "internalType": "uint256",
          "name": "amountForSale",
          "type": "uint256"
        },
        {
          "indexed": false,
          "internalType": "uint256",
          "name": "mintlistSaleDuration",
          "type": "uint256"
        },
        {
          "indexed": false,
          "internalType": "uint256",
          "name": "startingMetadataIndex",
          "type": "uint256"
        },
        {
          "indexed": false,
          "internalType": "uint256",
          "name": "folderGroupID",
          "type": "uint256"
        },
        {
          "indexed": false,
          "internalType": "uint256",
          "name": "publicSaleLimit",
          "type": "uint256"
        },
        {
          "indexed": false,
          "internalType": "bytes32",
          "name": "mintlistMerkleRoot",
          "type": "bytes32"
        },
        {
          "indexed": false,
          "internalType": "address",
          "name": "zNSRegistrar",
          "type": "address"
        }
      ],
      "name": "SaleConfigured",
      "type": "event"
    },
    {
      "anonymous": false,
      "inputs": [
        {
          "indexed": true,
          "internalType": "uint256",
          "name": "saleId",
          "type": "uint256"
        },
        {
          "indexed": false,
          "internalType": "uint256",
          "name": "amountForSale",
          "type": "uint256"
        }
      ],
      "name": "SaleQuantityChanged",
      "type": "event"
    },
    {
      "anonymous": false,
      "inputs": [
        {
          "indexed": true,
          "internalType": "uint256",
          "name": "saleId",
          "type": "uint256"
        },
        {
          "indexed": true,
          "internalType": "uint256",
          "name": "parentDomainId",
          "type": "uint256"
        },
        {
          "indexed": false,
          "internalType": "uint256",
          "name": "startingPhase",
          "type": "uint256"
        }
      ],
      "name": "SaleStarted",
      "type": "event"
    },
    {
      "anonymous": false,
      "inputs": [
        {
          "indexed": true,
          "internalType": "uint256",
          "name": "saleId",
          "type": "uint256"
        },
        {
          "indexed": true,
          "internalType": "uint256",
          "name": "parentDomainId",
          "type": "uint256"
        },
        {
          "indexed": false,
          "internalType": "uint256",
          "name": "remainingDomains",
          "type": "uint256"
        }
      ],
      "name": "SaleStopped",
      "type": "event"
    },
    {
      "anonymous": false,
      "inputs": [
        {
          "indexed": true,
          "internalType": "uint256",
          "name": "saleId",
          "type": "uint256"
        },
        {
          "indexed": false,
          "internalType": "address",
          "name": "seller",
          "type": "address"
        }
      ],
      "name": "SellerWalletChanged",
      "type": "event"
    },
    {
      "anonymous": false,
      "inputs": [
        {
          "indexed": false,
          "internalType": "address",
          "name": "account",
          "type": "address"
        }
      ],
      "name": "Unpaused",
      "type": "event"
    },
    {
      "inputs": [],
      "name": "DEFAULT_ADMIN_ROLE",
      "outputs": [
        {
          "internalType": "bytes32",
          "name": "",
          "type": "bytes32"
        }
      ],
      "stateMutability": "view",
      "type": "function"
    },
    {
      "inputs": [],
      "name": "SALE_MANAGER",
      "outputs": [
        {
          "internalType": "bytes32",
          "name": "",
          "type": "bytes32"
        }
      ],
      "stateMutability": "view",
      "type": "function"
    },
    {
      "inputs": [],
      "name": "__Sale_init",
      "outputs": [],
      "stateMutability": "nonpayable",
      "type": "function"
    },
    {
      "inputs": [
        {
          "components": [
            {
              "internalType": "address",
              "name": "sellerWallet",
              "type": "address"
            },
            {
              "internalType": "uint256",
              "name": "parentDomainId",
              "type": "uint256"
            },
            {
              "internalType": "uint256",
              "name": "salePrice",
              "type": "uint256"
            },
            {
              "internalType": "uint256",
              "name": "privateSalePrice",
              "type": "uint256"
            },
            {
              "internalType": "uint256",
              "name": "mintlistSaleDuration",
              "type": "uint256"
            },
            {
              "internalType": "uint256",
              "name": "amountForSale",
              "type": "uint256"
            },
            {
              "internalType": "bytes32",
              "name": "mintlistMerkleRoot",
              "type": "bytes32"
            },
            {
              "internalType": "uint256",
              "name": "startingMetadataIndex",
              "type": "uint256"
            },
            {
              "internalType": "uint256",
              "name": "folderGroupID",
              "type": "uint256"
            },
            {
              "internalType": "uint256",
              "name": "publicSaleLimit",
              "type": "uint256"
            }
          ],
          "internalType": "struct ISale.Config",
          "name": "config_",
          "type": "tuple"
        },
        {
          "internalType": "contract IRegistrar",
          "name": "zNSRegistrar_",
          "type": "address"
        }
      ],
      "name": "configureSale",
      "outputs": [],
      "stateMutability": "nonpayable",
      "type": "function"
    },
    {
      "inputs": [
        {
          "internalType": "uint256",
          "name": "",
          "type": "uint256"
        },
        {
          "internalType": "address",
          "name": "",
          "type": "address"
        }
      ],
      "name": "domainsPurchasedByAccountPerSale",
      "outputs": [
        {
          "internalType": "uint256",
          "name": "",
          "type": "uint256"
        }
      ],
      "stateMutability": "view",
      "type": "function"
    },
    {
      "inputs": [],
      "name": "domainsSold",
      "outputs": [
        {
          "internalType": "uint256",
          "name": "",
          "type": "uint256"
        }
      ],
      "stateMutability": "view",
      "type": "function"
    },
    {
      "inputs": [
        {
          "internalType": "bytes32",
          "name": "role",
          "type": "bytes32"
        }
      ],
      "name": "getRoleAdmin",
      "outputs": [
        {
          "internalType": "bytes32",
          "name": "",
          "type": "bytes32"
        }
      ],
      "stateMutability": "view",
      "type": "function"
    },
    {
      "inputs": [
        {
          "internalType": "uint256",
          "name": "parentDomainId_",
          "type": "uint256"
        },
        {
          "internalType": "address",
          "name": "zNSRegistrar_",
          "type": "address"
        },
        {
          "internalType": "uint256",
          "name": "saleCounter_",
          "type": "uint256"
        }
      ],
      "name": "getSaleId",
      "outputs": [
        {
          "internalType": "uint256",
          "name": "",
          "type": "uint256"
        }
      ],
      "stateMutability": "pure",
      "type": "function"
    },
    {
      "inputs": [
        {
          "internalType": "bytes32",
          "name": "role",
          "type": "bytes32"
        },
        {
          "internalType": "address",
          "name": "account",
          "type": "address"
        }
      ],
      "name": "grantRole",
      "outputs": [],
      "stateMutability": "nonpayable",
      "type": "function"
    },
    {
      "inputs": [
        {
          "internalType": "bytes32",
          "name": "role",
          "type": "bytes32"
        },
        {
          "internalType": "address",
          "name": "account",
          "type": "address"
        }
      ],
      "name": "hasRole",
      "outputs": [
        {
          "internalType": "bool",
          "name": "",
          "type": "bool"
        }
      ],
      "stateMutability": "view",
      "type": "function"
    },
    {
      "inputs": [],
      "name": "paused",
      "outputs": [
        {
          "internalType": "bool",
          "name": "",
          "type": "bool"
        }
      ],
      "stateMutability": "view",
      "type": "function"
    },
    {
      "inputs": [],
      "name": "publicSaleLimit",
      "outputs": [
        {
          "internalType": "uint256",
          "name": "",
          "type": "uint256"
        }
      ],
      "stateMutability": "view",
      "type": "function"
    },
    {
      "inputs": [
        {
          "internalType": "uint256",
          "name": "count",
          "type": "uint256"
        },
        {
          "internalType": "uint256",
          "name": "index",
          "type": "uint256"
        },
        {
          "internalType": "uint256",
          "name": "purchaseLimit",
          "type": "uint256"
        },
        {
          "internalType": "bytes32[]",
          "name": "merkleProof",
          "type": "bytes32[]"
        }
      ],
      "name": "purchaseDomainsPrivateSale",
      "outputs": [],
      "stateMutability": "payable",
      "type": "function"
    },
    {
      "inputs": [
        {
          "internalType": "uint8",
          "name": "count",
          "type": "uint8"
        }
      ],
      "name": "purchaseDomainsPublicSale",
      "outputs": [],
      "stateMutability": "payable",
      "type": "function"
    },
    {
      "inputs": [],
      "name": "releaseDomain",
      "outputs": [],
      "stateMutability": "nonpayable",
      "type": "function"
    },
    {
      "inputs": [
        {
          "internalType": "bytes32",
          "name": "role",
          "type": "bytes32"
        },
        {
          "internalType": "address",
          "name": "account",
          "type": "address"
        }
      ],
      "name": "renounceRole",
      "outputs": [],
      "stateMutability": "nonpayable",
      "type": "function"
    },
    {
      "inputs": [
        {
          "internalType": "bytes32",
          "name": "role",
          "type": "bytes32"
        },
        {
          "internalType": "address",
          "name": "account",
          "type": "address"
        }
      ],
      "name": "revokeRole",
      "outputs": [],
      "stateMutability": "nonpayable",
      "type": "function"
    },
    {
      "inputs": [],
      "name": "saleConfiguration",
      "outputs": [
        {
          "internalType": "address",
          "name": "sellerWallet",
          "type": "address"
        },
        {
          "internalType": "uint256",
          "name": "parentDomainId",
          "type": "uint256"
        },
        {
          "internalType": "uint256",
          "name": "salePrice",
          "type": "uint256"
        },
        {
          "internalType": "uint256",
          "name": "privateSalePrice",
          "type": "uint256"
        },
        {
          "internalType": "uint256",
          "name": "mintlistSaleDuration",
          "type": "uint256"
        },
        {
          "internalType": "uint256",
          "name": "amountForSale",
          "type": "uint256"
        },
        {
          "internalType": "bytes32",
          "name": "mintlistMerkleRoot",
          "type": "bytes32"
        },
        {
          "internalType": "uint256",
          "name": "startingMetadataIndex",
          "type": "uint256"
        },
        {
          "internalType": "uint256",
          "name": "folderGroupID",
          "type": "uint256"
        },
        {
          "internalType": "uint256",
          "name": "publicSaleLimit",
          "type": "uint256"
        }
      ],
      "stateMutability": "view",
      "type": "function"
    },
    {
      "inputs": [],
      "name": "saleCounter",
      "outputs": [
        {
          "internalType": "uint256",
          "name": "",
          "type": "uint256"
        }
      ],
      "stateMutability": "view",
      "type": "function"
    },
    {
      "inputs": [],
      "name": "saleId",
      "outputs": [
        {
          "internalType": "uint256",
          "name": "",
          "type": "uint256"
        }
      ],
      "stateMutability": "view",
      "type": "function"
    },
    {
      "inputs": [],
      "name": "salePhase",
      "outputs": [
        {
          "internalType": "enum Sale.SalePhases",
          "name": "",
          "type": "uint8"
        }
      ],
      "stateMutability": "view",
      "type": "function"
    },
    {
      "inputs": [],
      "name": "saleStartBlockTimestamp",
      "outputs": [
        {
          "internalType": "uint256",
          "name": "",
          "type": "uint256"
        }
      ],
      "stateMutability": "view",
      "type": "function"
    },
    {
      "inputs": [
        {
          "internalType": "bytes32",
          "name": "mintlistMerkleRoot_",
          "type": "bytes32"
        }
      ],
      "name": "setMintlistMerkleRoot",
      "outputs": [],
      "stateMutability": "nonpayable",
      "type": "function"
    },
    {
      "inputs": [
        {
          "internalType": "uint256",
          "name": "mintlistSaleDuration_",
          "type": "uint256"
        }
      ],
      "name": "setMintlistSaleDuration",
      "outputs": [],
      "stateMutability": "nonpayable",
      "type": "function"
    },
    {
      "inputs": [
        {
          "internalType": "bool",
          "name": "pauseStatus",
          "type": "bool"
        }
      ],
      "name": "setPauseStatus",
      "outputs": [],
      "stateMutability": "nonpayable",
      "type": "function"
    },
    {
      "inputs": [
        {
          "internalType": "enum Sale.SalePhases",
          "name": "_phase",
          "type": "uint8"
        }
      ],
      "name": "setPhase",
      "outputs": [],
      "stateMutability": "nonpayable",
      "type": "function"
    },
    {
      "inputs": [
        {
          "internalType": "uint256",
          "name": "price_",
          "type": "uint256"
        }
      ],
      "name": "setPrivateSalePrice",
      "outputs": [],
      "stateMutability": "nonpayable",
      "type": "function"
    },
    {
      "inputs": [
        {
          "internalType": "uint256",
          "name": "limit_",
          "type": "uint256"
        }
      ],
      "name": "setPublicSaleLimit",
      "outputs": [],
      "stateMutability": "nonpayable",
      "type": "function"
    },
    {
      "inputs": [
        {
          "internalType": "uint256",
          "name": "price_",
          "type": "uint256"
        }
      ],
      "name": "setSalePrice",
      "outputs": [],
      "stateMutability": "nonpayable",
      "type": "function"
    },
    {
      "inputs": [
        {
          "internalType": "uint256",
          "name": "amountForSale_",
          "type": "uint256"
        }
      ],
      "name": "setSaleQuantity",
      "outputs": [],
      "stateMutability": "nonpayable",
      "type": "function"
    },
    {
      "inputs": [
        {
          "internalType": "address",
          "name": "wallet_",
          "type": "address"
        }
      ],
      "name": "setSellerWallet",
      "outputs": [],
      "stateMutability": "nonpayable",
      "type": "function"
    },
    {
      "inputs": [],
      "name": "startSale",
      "outputs": [],
      "stateMutability": "nonpayable",
      "type": "function"
    },
    {
      "inputs": [],
      "name": "stopSale",
      "outputs": [],
      "stateMutability": "nonpayable",
      "type": "function"
    },
    {
      "inputs": [
        {
          "internalType": "bytes4",
          "name": "interfaceId",
          "type": "bytes4"
        }
      ],
      "name": "supportsInterface",
      "outputs": [
        {
          "internalType": "bool",
          "name": "",
          "type": "bool"
        }
      ],
      "stateMutability": "view",
      "type": "function"
    },
    {
      "inputs": [],
      "name": "zNSRegistrar",
      "outputs": [
        {
          "internalType": "contract IRegistrar",
          "name": "",
          "type": "address"
        }
      ],
      "stateMutability": "view",
      "type": "function"
    }
  ],
  "bytecode": "0x608060405234801561001057600080fd5b506125e7806100206000396000f3fe6080604052600436106102045760003560e01c80639544e71111610118578063cfcec763116100a0578063db0e7afc1161006f578063db0e7afc14610687578063df47f4b81461069a578063e36b0b37146106d2578063e4f2487a146106e7578063f2279dd61461070e57600080fd5b8063cfcec76314610614578063d547741f14610627578063d97d886d14610647578063dafd95211461066757600080fd5b8063bf4ce21b116100e7578063bf4ce21b14610592578063c03afb59146105a8578063c38bb537146105c8578063c623d0f2146105e8578063c84c0387146105fe57600080fd5b80639544e71114610531578063a217fddf14610546578063a3f6df011461055b578063b66a0e5d1461057d57600080fd5b80633c2e240d1161019b5780637684cd5f1161016a5780637684cd5f146103af5780637bc36e04146103cf57806383a6982b146103ef57806390dbb8061461045357806391d14854146104eb57600080fd5b80633c2e240d1461034c5780635c975abb146103615780636e3de87c146103795780636fe7b14b1461038f57600080fd5b80632b4261d8116101d75780632b4261d8146102b45780632f2ff15d146102ec57806336568abe1461030c57806339d82c591461032c57600080fd5b806301ffc9a7146102095780630387b0a21461023e5780631919fed714610262578063248a9ca314610284575b600080fd5b34801561021557600080fd5b50610229610224366004612220565b61072e565b60405190151581526020015b60405180910390f35b34801561024a57600080fd5b5061025460d85481565b604051908152602001610235565b34801561026e57600080fd5b5061028261027d3660046121d9565b610765565b005b34801561029057600080fd5b5061025461029f3660046121d9565b60009081526097602052604090206001015490565b3480156102c057600080fd5b506102546102cf36600461229b565b60d960209081526000928352604080842090915290825290205481565b3480156102f857600080fd5b506102826103073660046121f1565b6107be565b34801561031857600080fd5b506102826103273660046121f1565b6107e9565b34801561033857600080fd5b506102826103473660046121d9565b61086c565b34801561035857600080fd5b5061028261090f565b34801561036d57600080fd5b5060335460ff16610229565b34801561038557600080fd5b5061025460da5481565b34801561039b57600080fd5b506102826103aa3660046121d9565b6109b0565b3480156103bb57600080fd5b506102826103ca3660046121d9565b610a01565b3480156103db57600080fd5b506102826103ea3660046121d9565b610a52565b3480156103fb57600080fd5b5061025461040a3660046122ad565b6040805160208082019590955260609390931b6bffffffffffffffffffffffff191683820152605480840192909252805180840390920182526074909201909152805191012090565b34801561045f57600080fd5b5060ca5460cb5460cc5460cd5460ce5460cf5460d05460d15460d25460d354610497996001600160a01b03169897969594939291908a565b604080516001600160a01b03909b168b5260208b0199909952978901969096526060880194909452608087019290925260a086015260c085015260e084015261010083015261012082015261014001610235565b3480156104f757600080fd5b506102296105063660046121f1565b60009182526097602090815260408084206001600160a01b0393909316845291905290205460ff1690565b34801561053d57600080fd5b50610282610aa3565b34801561055257600080fd5b50610254600081565b34801561056757600080fd5b5061025460008051602061259283398151915281565b34801561058957600080fd5b50610282610b2d565b34801561059e57600080fd5b5061025460d65481565b3480156105b457600080fd5b506102826105c3366004612248565b610c71565b3480156105d457600080fd5b506102826105e33660046121b9565b610d33565b3480156105f457600080fd5b5061025460d45481565b34801561060a57600080fd5b5061025460d55481565b6102826106223660046122e4565b610db3565b34801561063357600080fd5b506102826106423660046121f1565b610e7d565b34801561065357600080fd5b506102826106623660046121d9565b610ea3565b34801561067357600080fd5b50610282610682366004612267565b610ef4565b61028261069536600461236f565b611235565b3480156106a657600080fd5b5060c9546106ba906001600160a01b031681565b6040516001600160a01b039091168152602001610235565b3480156106de57600080fd5b506102826112f5565b3480156106f357600080fd5b5060d7546107019060ff1681565b6040516102359190612411565b34801561071a57600080fd5b5061028261072936600461219d565b61144f565b60006001600160e01b03198216637965db0b60e01b148061075f57506301ffc9a760e01b6001600160e01b03198316145b92915050565b60008051602061259283398151915261077e8133611562565b60cc82905560d5546040518381527f8aa4fa52648a6d15edce8a179c792c86f3719d0cc3c572cf90f91948f0f2cb68906020015b60405180910390a25050565b6000828152609760205260409020600101546107da8133611562565b6107e483836115e2565b505050565b6001600160a01b038116331461085e5760405162461bcd60e51b815260206004820152602f60248201527f416363657373436f6e74726f6c3a2063616e206f6e6c792072656e6f756e636560448201526e103937b632b9903337b91039b2b63360891b60648201526084015b60405180910390fd5b6108688282611684565b5050565b6000805160206125928339815191526108858133611562565b60d3548214156108d75760405162461bcd60e51b815260206004820152601960248201527f43616e6e6f7420736574207468652073616d65206c696d6974000000000000006044820152606401610855565b60d382905560d5546040518381527f6407bf2bd96d60d362455b541b20ad3ec8929c1342b29048210fdaff85859e14906020016107b2565b600054610100900460ff1680610928575060005460ff16155b6109445760405162461bcd60e51b81526004016108559061246c565b600054610100900460ff16158015610966576000805461ffff19166101011790555b61096e611707565b61097960003361178a565b6109916000805160206125928339815191523361178a565b60d7805460ff1916905580156109ad576000805461ff00191690555b50565b6000805160206125928339815191526109c98133611562565b60d082905560d5546040518381527fc1d030de216649abcd0a6785b286e9ab113b37b8dd5836397396cbb00d9c0def906020016107b2565b600080516020612592833981519152610a1a8133611562565b60ce82905560d5546040518381527f254f8f57de77abf535f2342b0f1726a5dc92f47d376ee6f3a4590fa6b526f270906020016107b2565b600080516020612592833981519152610a6b8133611562565b60cd82905560d5546040518381527fa33aebe0cb8d1bd33665474dc4ac4fec940e28d42a953449470dcf790b3e784f906020016107b2565b600080516020612592833981519152610abc8133611562565b60c95460cb546040516323b872dd60e01b815230600482015233602482015260448101919091526001600160a01b03909116906323b872dd90606401600060405180830381600087803b158015610b1257600080fd5b505af1158015610b26573d6000803e3d6000fd5b5050505050565b600080516020612592833981519152610b468133611562565b60d75460019060ff16610b5881611794565b60d75460ff166003811115610b7d57634e487b7160e01b600052602160045260246000fd5b826003811115610b9d57634e487b7160e01b600052602160045260246000fd5b14610be15760405162461bcd60e51b81526020600482015260146024820152734e6f7420696e20436f727265637420506861736560601b6044820152606401610855565b4260d65560ce5415610bff5760d7805460ff19166002179055610c0d565b60d7805460ff191660031790555b60cb5460d55460d7547f5ee5e9eecd6fd27ba20784f8da118fe26b697aca487c80f605baec0b88ed36369060ff166003811115610c5a57634e487b7160e01b600052602160045260246000fd5b6040519081526020015b60405180910390a3505050565b600080516020612592833981519152610c8a8133611562565b6003826003811115610cac57634e487b7160e01b600052602160045260246000fd5b60ff161115610cfd5760405162461bcd60e51b815260206004820152601260248201527f5068617365206f7574206f662072616e676500000000000000000000000000006044820152606401610855565b60d7805483919060ff19166001836003811115610d2a57634e487b7160e01b600052602160045260246000fd5b02179055505050565b600080516020612592833981519152610d4c8133611562565b811515610d5b60335460ff1690565b15151415610d9d5760405162461bcd60e51b815260206004820152600f60248201526e4e6f207374617465206368616e676560881b6044820152606401610855565b8115610dab576108686117e6565b61086861187e565b60d75460029060ff16610dc581611794565b60d75460ff166003811115610dea57634e487b7160e01b600052602160045260246000fd5b826003811115610e0a57634e487b7160e01b600052602160045260246000fd5b14610e4e5760405162461bcd60e51b81526020600482015260146024820152734e6f7420696e20436f727265637420506861736560601b6044820152606401610855565b610e59338887611901565b610e6586868686611b06565b610e748760ca60030154611bdd565b50505050505050565b600082815260976020526040902060010154610e998133611562565b6107e48383611684565b600080516020612592833981519152610ebc8133611562565b60cf82905560d5546040518381527f3c05633626a303ef2f8d9eb853375f6a018c2e339c8c565b610174a3def2ea67906020016107b2565b600080516020612592833981519152610f0d8133611562565b6000610f1c602085018561219d565b6001600160a01b03161415610f6c5760405162461bcd60e51b815260206004820152601660248201527557616c6c6574206973207a65726f206164647265737360501b6044820152606401610855565b6001600160a01b038216610fc25760405162461bcd60e51b815260206004820152601560248201527f5a65726f20616464726573732070726f766964656400000000000000000000006044820152606401610855565b60408051610140810190915280610fdc602086018661219d565b6001600160a01b03168152602001846020013581526020018460400135815260200184606001358152602001846080013581526020018460a0013581526020018460c0013581526020018460e001358152602001846101000135815260200184610120013581525060ca60008201518160000160006101000a8154816001600160a01b0302191690836001600160a01b031602179055506020820151816001015560408201518160020155606082015181600301556080820151816004015560a0820151816005015560c0820151816006015560e08201518160070155610100820151816008015561012082015181600901559050508160c960006101000a8154816001600160a01b0302191690836001600160a01b0316021790555061114e83602001358360d8546040805160208082019590955260609390931b6bffffffffffffffffffffffff191683820152605480840192909252805180840390920182526074909201909152805191012090565b60d55560d880549060006111618361254b565b9091555060d85560d7805460ff19166001179055600060d45560d55460208401803591907fd41acc5f318239d0a14fd7c5e6c50793192dcd26d7b1a90495026def5206347f906040870135906060880135906111bd908961219d565b6040805193845260208401929092526001600160a01b039081169183019190915260a08089013560608401526080808a01359084015260e0808a013591840191909152610100808a013560c085810191909152610120808c0135938601939093528a0135908401529087169082015261014001610c64565b60d75460039060ff1661124781611794565b60d75460ff16600381111561126c57634e487b7160e01b600052602160045260246000fd5b82600381111561128c57634e487b7160e01b600052602160045260246000fd5b146112d05760405162461bcd60e51b81526020600482015260146024820152734e6f7420696e20436f727265637420506861736560601b6044820152606401610855565b6112e3338460ff1660ca60090154611901565b6107e48360ff1660ca60020154611bdd565b60008051602061259283398151915261130e8133611562565b60d75460039060029060ff168281111561133857634e487b7160e01b600052602160045260246000fd5b82600381111561135857634e487b7160e01b600052602160045260246000fd5b14806113a6575060d75460ff16600381111561138457634e487b7160e01b600052602160045260246000fd5b8160038111156113a457634e487b7160e01b600052602160045260246000fd5b145b6113e95760405162461bcd60e51b81526020600482015260146024820152734e6f7420696e20436f727265637420506861736560601b6044820152606401610855565b60d7805460ff1916905560d45460cf54600091611405916124f1565b905060ca6001015460d5547ffb8c580856bda91fbf79113257caecab43490183345a10889020454169dc2f268360405161144191815260200190565b60405180910390a350505050565b6000805160206125928339815191526114688133611562565b6001600160a01b0382166114b75760405162461bcd60e51b815260206004820152601660248201527557616c6c6574206973207a65726f206164647265737360501b6044820152606401610855565b60ca546001600160a01b03838116911614156115035760405162461bcd60e51b815260206004820152600b60248201526a14d85b594815d85b1b195d60aa1b6044820152606401610855565b60ca805473ffffffffffffffffffffffffffffffffffffffff19166001600160a01b03841690811790915560d554604051918252907f69855544c18b33a205f44cde0de78be6359140948958fa35eab278607591e5ce906020016107b2565b60008281526097602090815260408083206001600160a01b038516845290915290205460ff16610868576115a0816001600160a01b03166014611c5e565b6115ab836020611c5e565b6040516020016115bc929190612390565b60408051601f198184030181529082905262461bcd60e51b825261085591600401612439565b60008281526097602090815260408083206001600160a01b038516845290915290205460ff166108685760008281526097602090815260408083206001600160a01b03851684529091529020805460ff191660011790556116403390565b6001600160a01b0316816001600160a01b0316837f2f8788117e7eff1d82e926ec794901d17c78024a50270940304540a733656f0d60405160405180910390a45050565b60008281526097602090815260408083206001600160a01b038516845290915290205460ff16156108685760008281526097602090815260408083206001600160a01b0385168085529252808320805460ff1916905551339285917ff6391f5c32d9c69d2a47ea670b442974b53935d1edc7fd64eb21e047a839171b9190a45050565b600054610100900460ff1680611720575060005460ff16155b61173c5760405162461bcd60e51b81526004016108559061246c565b600054610100900460ff1615801561175e576000805461ffff19166101011790555b611766611e47565b61176e611e47565b611776611e47565b80156109ad576000805461ff001916905550565b61086882826115e2565b60028160038111156117b657634e487b7160e01b600052602160045260246000fd5b1480156117d1575060ce5460d6546117ce91906124ba565b42115b156109ad575060d7805460ff19166003179055565b60335460ff161561182c5760405162461bcd60e51b815260206004820152601060248201526f14185d5cd8589b194e881c185d5cd95960821b6044820152606401610855565b6033805460ff191660011790557f62e78cea01bee320cd4e420270b5ea74000d11b0c9f74754ebdbfc544b05a2586118613390565b6040516001600160a01b03909116815260200160405180910390a1565b60335460ff166118d05760405162461bcd60e51b815260206004820152601460248201527f5061757361626c653a206e6f74207061757365640000000000000000000000006044820152606401610855565b6033805460ff191690557f5db9ee0a495bf2e6ff9c91a7834c1ba4fdd244a5e8aa4e537bd38aeae4b073aa33611861565b60335460ff16156119475760405162461bcd60e51b815260206004820152601060248201526f14185d5cd8589b194e881c185d5cd95960821b6044820152606401610855565b6000600260d75460ff16600381111561197057634e487b7160e01b600052602160045260246000fd5b1461197d5760cc54611981565b60cd545b905061198d83826124d2565b3410156119dc5760405162461bcd60e51b815260206004820152601c60248201527f4e6f7420656e6f7567682066756e647320696e207075726368617365000000006044820152606401610855565b60008311611a2c5760405162461bcd60e51b815260206004820152601360248201527f5a65726f20707572636861736520636f756e74000000000000000000000000006044820152606401610855565b60cf5460d45410611a7f5760405162461bcd60e51b815260206004820152601860248201527f4e6f20646f6d61696e73206c65667420666f722073616c6500000000000000006044820152606401610855565b60d554600090815260d9602090815260408083206001600160a01b03881684529091529020548290611ab29085906124ba565b1115611b005760405162461bcd60e51b815260206004820152601860248201527f50757263686173696e67206265796f6e64206c696d69742e00000000000000006044820152606401610855565b50505050565b60408051602081018690526bffffffffffffffffffffffff193360601b169181019190915260548101849052600090607401604051602081830303815290604052805190602001209050611b918383808060200260200160405190810160405280939291908181526020018383602002808284376000920191909152505060d0549150849050611eb1565b610b265760405162461bcd60e51b815260206004820152601460248201527f496e76616c6964204d65726b6c652050726f6f660000000000000000000000006044820152606401610855565b6000611be883611f6e565b90506000611bf682846124d2565b9050611c0181611fff565b611c0a826120c3565b60d55460cb546040805133815260208101929092528101859052606081018690527f1fd6f355f1e87f0a202c945eea47fab592f4f5c45ab9622684a186d678d2cdd99060800160405180910390a250505050565b60606000611c6d8360026124d2565b611c789060026124ba565b67ffffffffffffffff811115611c9e57634e487b7160e01b600052604160045260246000fd5b6040519080825280601f01601f191660200182016040528015611cc8576020820181803683370190505b509050600360fc1b81600081518110611cf157634e487b7160e01b600052603260045260246000fd5b60200101906001600160f81b031916908160001a905350600f60fb1b81600181518110611d2e57634e487b7160e01b600052603260045260246000fd5b60200101906001600160f81b031916908160001a9053506000611d528460026124d2565b611d5d9060016124ba565b90505b6001811115611df1576f181899199a1a9b1b9c1cb0b131b232b360811b85600f1660108110611d9f57634e487b7160e01b600052603260045260246000fd5b1a60f81b828281518110611dc357634e487b7160e01b600052603260045260246000fd5b60200101906001600160f81b031916908160001a90535060049490941c93611dea81612534565b9050611d60565b508315611e405760405162461bcd60e51b815260206004820181905260248201527f537472696e67733a20686578206c656e67746820696e73756666696369656e746044820152606401610855565b9392505050565b600054610100900460ff1680611e60575060005460ff16155b611e7c5760405162461bcd60e51b81526004016108559061246c565b600054610100900460ff16158015611776576000805461ffff191661010117905580156109ad576000805461ff001916905550565b600081815b8551811015611f63576000868281518110611ee157634e487b7160e01b600052603260045260246000fd5b60200260200101519050808311611f23576040805160208101859052908101829052606001604051602081830303815290604052805190602001209250611f50565b60408051602081018390529081018490526060016040516020818303038152906040528051906020012092505b5080611f5b8161254b565b915050611eb6565b509092149392505050565b60cf5460d45460009183918190611f869084906124ba565b1115611f9c5760d454611f9990826124f1565b91505b8160d46000828254611fae91906124ba565b909155505060d554600090815260d960209081526040808320338452909152902054611fdb9083906124ba565b60d554600090815260d9602090815260408083203384529091529020555092915050565b60ca546040516001600160a01b039091169082156108fc029083906000818181858888f19350505050158015612039573d6000803e3d6000fd5b50600061204682346124f1565b9050801561086857604051339082156108fc029083906000818181858888f1935050505015801561207b573d6000803e3d6000fd5b5060d554604080513381526020810184905280820192909252517fcd83cb6625ac2d3ebf45796b44cbebe9f08635a5a78249004b4e58f8d93b689c9181900360600190a15050565b60008160d45460ca600701546120d991906124ba565b6120e391906124f1565b60c95460cb5460d2549293506001600160a01b0390911691630cea6482919060008561210f88826124ba565b60ca5460405160e088901b6001600160e01b0319168152600481019690965260248601949094526044850192909252606484015260848301526001600160a01b031660a4820152600060c48201523360e482015261010401600060405180830381600087803b15801561218157600080fd5b505af1158015612195573d6000803e3d6000fd5b505050505050565b6000602082840312156121ae578081fd5b8135611e408161257c565b6000602082840312156121ca578081fd5b81358015158114611e40578182fd5b6000602082840312156121ea578081fd5b5035919050565b60008060408385031215612203578081fd5b8235915060208301356122158161257c565b809150509250929050565b600060208284031215612231578081fd5b81356001600160e01b031981168114611e40578182fd5b600060208284031215612259578081fd5b813560048110611e40578182fd5b60008082840361016081121561227b578283fd5b6101408082121561228a578384fd5b84935083013590506122158161257c565b60008060408385031215612203578182fd5b6000806000606084860312156122c1578081fd5b8335925060208401356122d38161257c565b929592945050506040919091013590565b6000806000806000608086880312156122fb578081fd5b853594506020860135935060408601359250606086013567ffffffffffffffff80821115612327578283fd5b818801915088601f83011261233a578283fd5b813581811115612348578384fd5b8960208260051b850101111561235c578384fd5b9699959850939650602001949392505050565b600060208284031215612380578081fd5b813560ff81168114611e40578182fd5b7f416363657373436f6e74726f6c3a206163636f756e74200000000000000000008152600083516123c8816017850160208801612508565b7f206973206d697373696e6720726f6c65200000000000000000000000000000006017918401918201528351612405816028840160208801612508565b01602801949350505050565b602081016004831061243357634e487b7160e01b600052602160045260246000fd5b91905290565b6020815260008251806020840152612458816040850160208701612508565b601f01601f19169190910160400192915050565b6020808252602e908201527f496e697469616c697a61626c653a20636f6e747261637420697320616c72656160408201526d191e481a5b9a5d1a585b1a5e995960921b606082015260800190565b600082198211156124cd576124cd612566565b500190565b60008160001904831182151516156124ec576124ec612566565b500290565b60008282101561250357612503612566565b500390565b60005b8381101561252357818101518382015260200161250b565b83811115611b005750506000910152565b60008161254357612543612566565b506000190190565b600060001982141561255f5761255f612566565b5060010190565b634e487b7160e01b600052601160045260246000fd5b6001600160a01b03811681146109ad57600080fdfe3acf1bc7984281b30349b9bfa997b4b0f2f358952540ae4429a353ceb699e8dca26469706673582212206f14959e8ca290887700535252324ae81539a1bbf72f6f1b09dad5f2d56a2eb664736f6c63430008040033",
  "linkReferences": {},
  "deployedLinkReferences": {}
}