{
  "_format": "hh-sol-artifact-1",
  "contractName": "WapeSale",
  "sourceName": "contracts/WapeSale.sol",
  "abi": [
    {
      "anonymous": false,
      "inputs": [
        {
          "indexed": true,
          "internalType": "address",
          "name": "previousOwner",
          "type": "address"
        },
        {
          "indexed": true,
          "internalType": "address",
          "name": "newOwner",
          "type": "address"
        }
      ],
      "name": "OwnershipTransferred",
      "type": "event"
    },
    {
      "anonymous": false,
      "inputs": [
        {
          "indexed": false,
          "internalType": "address",
          "name": "account",
          "type": "address"
        }
      ],
      "name": "Paused",
      "type": "event"
    },
    {
      "anonymous": false,
      "inputs": [
        {
          "indexed": false,
          "internalType": "address",
          "name": "buyer",
          "type": "address"
        },
        {
          "indexed": false,
          "internalType": "uint256",
          "name": "amount",
          "type": "uint256"
        }
      ],
      "name": "RefundedEther",
      "type": "event"
    },
    {
      "anonymous": false,
      "inputs": [
        {
          "indexed": false,
          "internalType": "uint256",
          "name": "block",
          "type": "uint256"
        }
      ],
      "name": "SaleStarted",
      "type": "event"
    },
    {
      "anonymous": false,
      "inputs": [
        {
          "indexed": false,
          "internalType": "uint256",
          "name": "block",
          "type": "uint256"
        }
      ],
      "name": "SaleStopped",
      "type": "event"
    },
    {
      "anonymous": false,
      "inputs": [
        {
          "indexed": false,
          "internalType": "address",
          "name": "account",
          "type": "address"
        }
      ],
      "name": "Unpaused",
      "type": "event"
    },
    {
      "inputs": [
        {
          "internalType": "uint256",
          "name": "parentDomainId_",
          "type": "uint256"
        },
        {
          "internalType": "uint256",
          "name": "price_",
          "type": "uint256"
        },
        {
          "internalType": "contract IRegistrar",
          "name": "zNSRegistrar_",
          "type": "address"
        },
        {
          "internalType": "address",
          "name": "sellerWallet_",
          "type": "address"
        },
        {
          "internalType": "uint256",
          "name": "mintlistSaleDuration_",
          "type": "uint256"
        },
        {
          "internalType": "uint256",
          "name": "amountForSale_",
          "type": "uint256"
        },
        {
          "internalType": "bytes32",
          "name": "merkleRoot_",
          "type": "bytes32"
        },
        {
          "internalType": "uint256",
          "name": "startingMetadataIndex_",
          "type": "uint256"
        },
        {
          "internalType": "uint256",
          "name": "folderGroupID_",
          "type": "uint256"
        },
        {
          "internalType": "uint256",
          "name": "publicSaleLimit_",
          "type": "uint256"
        }
      ],
      "name": "__WapeSale_init",
      "outputs": [],
      "stateMutability": "nonpayable",
      "type": "function"
    },
    {
      "inputs": [],
      "name": "amountForSale",
      "outputs": [
        {
          "internalType": "uint256",
          "name": "",
          "type": "uint256"
        }
      ],
      "stateMutability": "view",
      "type": "function"
    },
    {
      "inputs": [
        {
          "internalType": "address",
          "name": "",
          "type": "address"
        }
      ],
      "name": "domainsPurchasedByAccount",
      "outputs": [
        {
          "internalType": "uint256",
          "name": "",
          "type": "uint256"
        }
      ],
      "stateMutability": "view",
      "type": "function"
    },
    {
      "inputs": [],
      "name": "domainsSold",
      "outputs": [
        {
          "internalType": "uint256",
          "name": "",
          "type": "uint256"
        }
      ],
      "stateMutability": "view",
      "type": "function"
    },
    {
      "inputs": [],
      "name": "folderGroupID",
      "outputs": [
        {
          "internalType": "uint256",
          "name": "",
          "type": "uint256"
        }
      ],
      "stateMutability": "view",
      "type": "function"
    },
    {
      "inputs": [],
      "name": "mintlistMerkleRoot",
      "outputs": [
        {
          "internalType": "bytes32",
          "name": "",
          "type": "bytes32"
        }
      ],
      "stateMutability": "view",
      "type": "function"
    },
    {
      "inputs": [],
      "name": "mintlistSaleDuration",
      "outputs": [
        {
          "internalType": "uint256",
          "name": "",
          "type": "uint256"
        }
      ],
      "stateMutability": "view",
      "type": "function"
    },
    {
      "inputs": [],
      "name": "owner",
      "outputs": [
        {
          "internalType": "address",
          "name": "",
          "type": "address"
        }
      ],
      "stateMutability": "view",
      "type": "function"
    },
    {
      "inputs": [],
      "name": "parentDomainId",
      "outputs": [
        {
          "internalType": "uint256",
          "name": "",
          "type": "uint256"
        }
      ],
      "stateMutability": "view",
      "type": "function"
    },
    {
      "inputs": [],
      "name": "paused",
      "outputs": [
        {
          "internalType": "bool",
          "name": "",
          "type": "bool"
        }
      ],
      "stateMutability": "view",
      "type": "function"
    },
    {
      "inputs": [],
      "name": "publicSaleLimit",
      "outputs": [
        {
          "internalType": "uint256",
          "name": "",
          "type": "uint256"
        }
      ],
      "stateMutability": "view",
      "type": "function"
    },
    {
      "inputs": [
        {
          "internalType": "uint256",
          "name": "count",
          "type": "uint256"
        },
        {
          "internalType": "uint256",
          "name": "index",
          "type": "uint256"
        },
        {
          "internalType": "uint256",
          "name": "purchaseLimit",
          "type": "uint256"
        },
        {
          "internalType": "bytes32[]",
          "name": "merkleProof",
          "type": "bytes32[]"
        }
      ],
      "name": "purchaseDomains",
      "outputs": [],
      "stateMutability": "payable",
      "type": "function"
    },
    {
      "inputs": [
        {
          "internalType": "uint8",
          "name": "count",
          "type": "uint8"
        }
      ],
      "name": "purchaseDomainsPublicSale",
      "outputs": [],
      "stateMutability": "payable",
      "type": "function"
    },
    {
      "inputs": [],
      "name": "releaseDomain",
      "outputs": [],
      "stateMutability": "nonpayable",
      "type": "function"
    },
    {
      "inputs": [],
      "name": "renounceOwnership",
      "outputs": [],
      "stateMutability": "nonpayable",
      "type": "function"
    },
    {
      "inputs": [],
      "name": "salePrice",
      "outputs": [
        {
          "internalType": "uint256",
          "name": "",
          "type": "uint256"
        }
      ],
      "stateMutability": "view",
      "type": "function"
    },
    {
      "inputs": [],
      "name": "saleStartBlock",
      "outputs": [
        {
          "internalType": "uint256",
          "name": "",
          "type": "uint256"
        }
      ],
      "stateMutability": "view",
      "type": "function"
    },
    {
      "inputs": [],
      "name": "saleStarted",
      "outputs": [
        {
          "internalType": "bool",
          "name": "",
          "type": "bool"
        }
      ],
      "stateMutability": "view",
      "type": "function"
    },
    {
      "inputs": [],
      "name": "sellerWallet",
      "outputs": [
        {
          "internalType": "address",
          "name": "",
          "type": "address"
        }
      ],
      "stateMutability": "view",
      "type": "function"
    },
    {
      "inputs": [
        {
          "internalType": "uint256",
          "name": "folderGroupID_",
          "type": "uint256"
        }
      ],
      "name": "setFolderGroupID",
      "outputs": [],
      "stateMutability": "nonpayable",
      "type": "function"
    },
    {
      "inputs": [
        {
          "internalType": "bytes32",
          "name": "root",
          "type": "bytes32"
        }
      ],
      "name": "setMerkleRoot",
      "outputs": [],
      "stateMutability": "nonpayable",
      "type": "function"
    },
    {
      "inputs": [
        {
          "internalType": "uint256",
          "name": "parentId",
          "type": "uint256"
        }
      ],
      "name": "setParentDomainId",
      "outputs": [],
      "stateMutability": "nonpayable",
      "type": "function"
    },
    {
      "inputs": [
        {
          "internalType": "bool",
          "name": "pauseStatus",
          "type": "bool"
        }
      ],
      "name": "setPauseStatus",
      "outputs": [],
      "stateMutability": "nonpayable",
      "type": "function"
    },
    {
      "inputs": [
        {
          "internalType": "uint256",
          "name": "limit_",
          "type": "uint256"
        }
      ],
      "name": "setPublicSaleLimit",
      "outputs": [],
      "stateMutability": "nonpayable",
      "type": "function"
    },
    {
      "inputs": [
        {
          "internalType": "contract IRegistrar",
          "name": "zNSRegistrar_",
          "type": "address"
        }
      ],
      "name": "setRegistrar",
      "outputs": [],
      "stateMutability": "nonpayable",
      "type": "function"
    },
    {
      "inputs": [
        {
          "internalType": "uint256",
          "name": "durationInBlocks",
          "type": "uint256"
        }
      ],
      "name": "setSaleDuration",
      "outputs": [],
      "stateMutability": "nonpayable",
      "type": "function"
    },
    {
      "inputs": [
        {
          "internalType": "uint256",
          "name": "price",
          "type": "uint256"
        }
      ],
      "name": "setSalePrice",
      "outputs": [],
      "stateMutability": "nonpayable",
      "type": "function"
    },
    {
      "inputs": [
        {
          "internalType": "uint256",
          "name": "amountForSale_",
          "type": "uint256"
        }
      ],
      "name": "setSaleQuantity",
      "outputs": [],
      "stateMutability": "nonpayable",
      "type": "function"
    },
    {
      "inputs": [
        {
          "internalType": "address",
          "name": "wallet",
          "type": "address"
        }
      ],
      "name": "setSellerWallet",
      "outputs": [],
      "stateMutability": "nonpayable",
      "type": "function"
    },
    {
      "inputs": [
        {
          "internalType": "uint256",
          "name": "index",
          "type": "uint256"
        }
      ],
      "name": "setStartIndex",
      "outputs": [],
      "stateMutability": "nonpayable",
      "type": "function"
    },
    {
      "inputs": [],
      "name": "startSale",
      "outputs": [],
      "stateMutability": "nonpayable",
      "type": "function"
    },
    {
      "inputs": [],
      "name": "startingMetadataIndex",
      "outputs": [
        {
          "internalType": "uint256",
          "name": "",
          "type": "uint256"
        }
      ],
      "stateMutability": "view",
      "type": "function"
    },
    {
      "inputs": [],
      "name": "stopSale",
      "outputs": [],
      "stateMutability": "nonpayable",
      "type": "function"
    },
    {
      "inputs": [
        {
          "internalType": "address",
          "name": "newOwner",
          "type": "address"
        }
      ],
      "name": "transferOwnership",
      "outputs": [],
      "stateMutability": "nonpayable",
      "type": "function"
    },
    {
      "inputs": [],
      "name": "zNSRegistrar",
      "outputs": [
        {
          "internalType": "contract IRegistrar",
          "name": "",
          "type": "address"
        }
      ],
      "stateMutability": "view",
      "type": "function"
    }
  ],
  "bytecode": "0x608060405234801561001057600080fd5b50611d5c806100206000396000f3fe6080604052600436106102045760003560e01c80638da5cb5b11610118578063db0e7afc116100a0578063f2279dd61161006f578063f2279dd614610563578063f2fde38b14610583578063f51f96dd146105a3578063faab9d39146105b9578063fb8b74c2146105d957610204565b8063db0e7afc14610505578063df47f4b814610518578063e25acff314610538578063e36b0b371461054e57610204565b8063b66a0e5d116100e7578063b66a0e5d14610484578063b6920d9014610499578063c38bb537146104af578063c623d0f2146104cf578063d97d886d146104e557610204565b80638da5cb5b1461041b57806392f1bfbe146104395780639544e7111461044f578063a090ec4d1461046457610204565b80635ff7d9d51161019b578063715018a61161016a578063715018a6146103785780637cb647591461038d5780637e12180e146103ad5780638460a5de146103cd5780638473e55f1461040557610204565b80635ff7d9d5146102ff5780636465c70e1461031f57806365285462146103355780636e3de87c1461036257610204565b806339d82c59116101d757806339d82c591461028a5780633b3e6ba9146102aa5780635c474f9e146102bd5780635c975abb146102e757610204565b806316ecc131146102095780631919fed7146102325780631deee260146102545780632002727514610274575b600080fd5b34801561021557600080fd5b5061021f60a05481565b6040519081526020015b60405180910390f35b34801561023e57600080fd5b5061025261024d366004611ae0565b6105f9565b005b34801561026057600080fd5b5061025261026f366004611af8565b61068f565b34801561028057600080fd5b5061021f609d5481565b34801561029657600080fd5b506102526102a5366004611ae0565b610765565b6102526102b8366004611b78565b610804565b3480156102c957600080fd5b50609c546102d79060ff1681565b6040519015158152602001610229565b3480156102f357600080fd5b5060655460ff166102d7565b34801561030b57600080fd5b5061025261031a366004611ae0565b61082b565b34801561032b57600080fd5b5061021f609e5481565b34801561034157600080fd5b5061021f610350366004611a9d565b60a36020526000908152604090205481565b34801561036e57600080fd5b5061021f60a45481565b34801561038457600080fd5b506102526108ca565b34801561039957600080fd5b506102526103a8366004611ae0565b61091e565b3480156103b957600080fd5b506102526103c8366004611ae0565b6109a9565b3480156103d957600080fd5b50609a546103ed906001600160a01b031681565b6040516001600160a01b039091168152602001610229565b34801561041157600080fd5b5061021f609f5481565b34801561042757600080fd5b506033546001600160a01b03166103ed565b34801561044557600080fd5b5061021f60a15481565b34801561045b57600080fd5b50610252610a3a565b34801561047057600080fd5b5061025261047f366004611ae0565b610b12565b34801561049057600080fd5b50610252610bb1565b3480156104a557600080fd5b5061021f60a25481565b3480156104bb57600080fd5b506102526104ca366004611ac0565b610c9b565b3480156104db57600080fd5b5061021f609b5481565b3480156104f157600080fd5b50610252610500366004611ae0565b610d52565b610252610513366004611c03565b610de3565b34801561052457600080fd5b506097546103ed906001600160a01b031681565b34801561054457600080fd5b5061021f60985481565b34801561055a57600080fd5b50610252610e66565b34801561056f57600080fd5b5061025261057e366004611a9d565b610f2d565b34801561058f57600080fd5b5061025261059e366004611a9d565b610fe3565b3480156105af57600080fd5b5061021f60995481565b3480156105c557600080fd5b506102526105d4366004611a9d565b611099565b3480156105e557600080fd5b506102526105f4366004611ae0565b611152565b6033546001600160a01b031633146106465760405162461bcd60e51b81526020600482018190526024820152600080516020611d0783398151915260448201526064015b60405180910390fd5b80609954141561068a5760405162461bcd60e51b815260206004820152600f60248201526e4e6f207072696365206368616e676560881b604482015260640161063d565b609955565b600054610100900460ff16806106a8575060005460ff16155b6106c45760405162461bcd60e51b815260040161063d90611c24565b600054610100900460ff161580156106e6576000805461ffff19166101011790555b6106ee6111e2565b60988b905560998a9055609780546001600160a01b03808c166001600160a01b031992831617909255609a8054928b1692909116919091179055609e87905560a285905560a084905560a1839055609f86905560a48290558015610758576000805461ff00191690555b5050505050505050505050565b6033546001600160a01b031633146107ad5760405162461bcd60e51b81526020600482018190526024820152600080516020611d07833981519152604482015260640161063d565b8060a45414156107ff5760405162461bcd60e51b815260206004820152601960248201527f43616e6e6f7420736574207468652073616d65206c696d697400000000000000604482015260640161063d565b60a455565b61080f33868561125d565b61081b8484848461146c565b61082485611543565b5050505050565b6033546001600160a01b031633146108735760405162461bcd60e51b81526020600482018190526024820152600080516020611d07833981519152604482015260640161063d565b60a0548114156108c55760405162461bcd60e51b815260206004820152601c60248201527f43616e6e6f742073657420746f207468652073616d6520696e64657800000000604482015260640161063d565b60a055565b6033546001600160a01b031633146109125760405162461bcd60e51b81526020600482018190526024820152600080516020611d07833981519152604482015260640161063d565b61091c6000611574565b565b6033546001600160a01b031633146109665760405162461bcd60e51b81526020600482018190526024820152600080516020611d07833981519152604482015260640161063d565b8060a25414156109a45760405162461bcd60e51b81526020600482015260096024820152681cd85b59481c9bdbdd60ba1b604482015260640161063d565b60a255565b6033546001600160a01b031633146109f15760405162461bcd60e51b81526020600482018190526024820152600080516020611d07833981519152604482015260640161063d565b80609e541415610a355760405162461bcd60e51b815260206004820152600f60248201526e4e6f207374617465206368616e676560881b604482015260640161063d565b609e55565b6033546001600160a01b03163314610a825760405162461bcd60e51b81526020600482018190526024820152600080516020611d07833981519152604482015260640161063d565b6097546001600160a01b03166323b872dd30610aa66033546001600160a01b031690565b6098546040516001600160e01b031960e086901b1681526001600160a01b0393841660048201529290911660248301526044820152606401600060405180830381600087803b158015610af857600080fd5b505af1158015610b0c573d6000803e3d6000fd5b50505050565b6033546001600160a01b03163314610b5a5760405162461bcd60e51b81526020600482018190526024820152600080516020611d07833981519152604482015260640161063d565b8060a1541415610bac5760405162461bcd60e51b815260206004820152601f60248201527f43616e6e6f742073657420746f2073616d6520666f6c6465722067726f757000604482015260640161063d565b60a155565b6033546001600160a01b03163314610bf95760405162461bcd60e51b81526020600482018190526024820152600080516020611d07833981519152604482015260640161063d565b609c5460ff1615610c4c5760405162461bcd60e51b815260206004820152601460248201527f53616c6520616c72656164792073746172746564000000000000000000000000604482015260640161063d565b609c805460ff1916600117905543609d8190556040517fa78c547613f6306e7a70d1bd161c18a496cae1eeb8d4f9e58b60d69ad72ddf5891610c919190815260200190565b60405180910390a1565b6033546001600160a01b03163314610ce35760405162461bcd60e51b81526020600482018190526024820152600080516020611d07833981519152604482015260640161063d565b801515610cf260655460ff1690565b15151415610d345760405162461bcd60e51b815260206004820152600f60248201526e4e6f207374617465206368616e676560881b604482015260640161063d565b8015610d4757610d426115c6565b610d4f565b610d4f611659565b50565b6033546001600160a01b03163314610d9a5760405162461bcd60e51b81526020600482018190526024820152600080516020611d07833981519152604482015260640161063d565b609f54811415610dde5760405162461bcd60e51b815260206004820152600f60248201526e4e6f207374617465206368616e676560881b604482015260640161063d565b609f55565b6000609e54609d54610df59190611c72565b4311905080610e465760405162461bcd60e51b815260206004820152601360248201527f4e6f74207075626c69632073616c652079657400000000000000000000000000604482015260640161063d565b610e56338360ff1660a45461125d565b610e628260ff16611543565b5050565b6033546001600160a01b03163314610eae5760405162461bcd60e51b81526020600482018190526024820152600080516020611d07833981519152604482015260640161063d565b609c5460ff16610ef35760405162461bcd60e51b815260206004820152601060248201526f14d85b19481b9bdd081cdd185c9d195960821b604482015260640161063d565b609c805460ff191690556040514381527f47f75dd68b479a7dc904baeb75498ebb157246edcc056bb28bf42d12f1d8e36490602001610c91565b6033546001600160a01b03163314610f755760405162461bcd60e51b81526020600482018190526024820152600080516020611d07833981519152604482015260640161063d565b609a546001600160a01b0382811691161415610fc15760405162461bcd60e51b815260206004820152600b60248201526a14d85b594815d85b1b195d60aa1b604482015260640161063d565b609a80546001600160a01b0319166001600160a01b0392909216919091179055565b6033546001600160a01b0316331461102b5760405162461bcd60e51b81526020600482018190526024820152600080516020611d07833981519152604482015260640161063d565b6001600160a01b0381166110905760405162461bcd60e51b815260206004820152602660248201527f4f776e61626c653a206e6577206f776e657220697320746865207a65726f206160448201526564647265737360d01b606482015260840161063d565b610d4f81611574565b6033546001600160a01b031633146110e15760405162461bcd60e51b81526020600482018190526024820152600080516020611d07833981519152604482015260640161063d565b6097546001600160a01b03828116911614156111305760405162461bcd60e51b815260206004820152600e60248201526d29b0b6b2903932b3b4b9ba3930b960911b604482015260640161063d565b609780546001600160a01b0319166001600160a01b0392909216919091179055565b6033546001600160a01b0316331461119a5760405162461bcd60e51b81526020600482018190526024820152600080516020611d07833981519152604482015260640161063d565b8060985414156111dd5760405162461bcd60e51b815260206004820152600e60248201526d14d85b59481c185c995b9d081a5960921b604482015260640161063d565b609855565b600054610100900460ff16806111fb575060005460ff16155b6112175760405162461bcd60e51b815260040161063d90611c24565b600054610100900460ff16158015611239576000805461ffff19166101011790555b6112416116dc565b611249611746565b8015610d4f576000805461ff001916905550565b600082116112ad5760405162461bcd60e51b815260206004820152601360248201527f5a65726f20707572636861736520636f756e7400000000000000000000000000604482015260640161063d565b609f54609b54106113005760405162461bcd60e51b815260206004820152601860248201527f4e6f20646f6d61696e73206c65667420666f722073616c650000000000000000604482015260640161063d565b6001600160a01b038316600090815260a360205260409020548190611326908490611c72565b11156113745760405162461bcd60e51b815260206004820152601860248201527f50757263686173696e67206265796f6e64206c696d69742e0000000000000000604482015260640161063d565b816099546113829190611c8a565b3410156113d15760405162461bcd60e51b815260206004820152601c60248201527f4e6f7420656e6f7567682066756e647320696e20707572636861736500000000604482015260640161063d565b60655460ff16156114155760405162461bcd60e51b815260206004820152600e60248201526d14d85b19481a5cc81c185d5cd95960921b604482015260640161063d565b609c5460ff166114675760405162461bcd60e51b815260206004820181905260248201527f53616c65206861736e27742073746172746564206f722068617320656e646564604482015260640161063d565b505050565b60408051602081018690526bffffffffffffffffffffffff193360601b1691810191909152605481018490526000906074016040516020818303038152906040528051906020012090506114f78383808060200260200160405190810160405280939291908181526020018383602002808284376000920191909152505060a25491508490506117a6565b6108245760405162461bcd60e51b815260206004820152601460248201527f496e76616c6964204d65726b6c652050726f6f66000000000000000000000000604482015260640161063d565b600061154e82611863565b90506000816099546115609190611c8a565b905061156b816118da565b611467826119af565b603380546001600160a01b038381166001600160a01b0319831681179093556040519116919082907f8be0079c531659141344cd1fd0a4f28419497f9722a3daafe3b4186f6b6457e090600090a35050565b60655460ff161561160c5760405162461bcd60e51b815260206004820152601060248201526f14185d5cd8589b194e881c185d5cd95960821b604482015260640161063d565b6065805460ff191660011790557f62e78cea01bee320cd4e420270b5ea74000d11b0c9f74754ebdbfc544b05a2586116413390565b6040516001600160a01b039091168152602001610c91565b60655460ff166116ab5760405162461bcd60e51b815260206004820152601460248201527f5061757361626c653a206e6f7420706175736564000000000000000000000000604482015260640161063d565b6065805460ff191690557f5db9ee0a495bf2e6ff9c91a7834c1ba4fdd244a5e8aa4e537bd38aeae4b073aa33611641565b600054610100900460ff16806116f5575060005460ff16155b6117115760405162461bcd60e51b815260040161063d90611c24565b600054610100900460ff16158015611249576000805461ffff19166101011790558015610d4f576000805461ff001916905550565b600054610100900460ff168061175f575060005460ff16155b61177b5760405162461bcd60e51b815260040161063d90611c24565b600054610100900460ff1615801561179d576000805461ffff19166101011790555b61124933611574565b600081815b85518110156118585760008682815181106117d657634e487b7160e01b600052603260045260246000fd5b60200260200101519050808311611818576040805160208101859052908101829052606001604051602081830303815290604052805190602001209250611845565b60408051602081018390529081018490526060016040516020818303038152906040528051906020012092505b508061185081611cc0565b9150506117ab565b509092149392505050565b609f54609b546000918391819061187b908490611c72565b111561189157609b5461188e9082611ca9565b91505b81609b60008282546118a39190611c72565b909155505033600090815260a360205260409020546118c3908390611c72565b33600090815260a360205260409020555092915050565b609a546040516001600160a01b039091169082156108fc029083906000818181858888f19350505050158015611914573d6000803e3d6000fd5b5060006119218234611ca9565b1115610d4f57336108fc6119358334611ca9565b6040518115909202916000818181858888f1935050505015801561195d573d6000803e3d6000fd5b507f5e90a7af0e257106295d4cabfe31a7f0bc7100b422f59e277d09b25932f9aa743361198a8334611ca9565b604080516001600160a01b03909316835260208301919091520160405180910390a150565b600081609b5460a0546119c29190611c72565b6119cc9190611ca9565b905060005b828110156114675760975460985460a1546001600160a01b0390921691630cea64829190600086611a028982611c72565b609a5460405160e088901b6001600160e01b0319168152600481019690965260248601949094526044850192909252606484015260848301526001600160a01b031660a4820152600060c48201523360e482015261010401600060405180830381600087803b158015611a7457600080fd5b505af1158015611a88573d6000803e3d6000fd5b5050505080611a9690611cc0565b90506119d1565b600060208284031215611aae578081fd5b8135611ab981611cf1565b9392505050565b600060208284031215611ad1578081fd5b81358015158114611ab9578182fd5b600060208284031215611af1578081fd5b5035919050565b6000806000806000806000806000806101408b8d031215611b17578586fd5b8a35995060208b0135985060408b0135611b3081611cf1565b975060608b0135611b4081611cf1565b999c989b50969960808101359860a0820135985060c0820135975060e082013596506101008201359550610120909101359350915050565b600080600080600060808688031215611b8f578081fd5b853594506020860135935060408601359250606086013567ffffffffffffffff80821115611bbb578283fd5b818801915088601f830112611bce578283fd5b813581811115611bdc578384fd5b8960208260051b8501011115611bf0578384fd5b9699959850939650602001949392505050565b600060208284031215611c14578081fd5b813560ff81168114611ab9578182fd5b6020808252602e908201527f496e697469616c697a61626c653a20636f6e747261637420697320616c72656160408201526d191e481a5b9a5d1a585b1a5e995960921b606082015260800190565b60008219821115611c8557611c85611cdb565b500190565b6000816000190483118215151615611ca457611ca4611cdb565b500290565b600082821015611cbb57611cbb611cdb565b500390565b6000600019821415611cd457611cd4611cdb565b5060010190565b634e487b7160e01b600052601160045260246000fd5b6001600160a01b0381168114610d4f57600080fdfe4f776e61626c653a2063616c6c6572206973206e6f7420746865206f776e6572a2646970667358221220a740d9b147171246e0d116b7f7ac104c7e38e9ed5a03cf11300e0bec46a6843b64736f6c63430008030033",
  "linkReferences": {},
  "deployedLinkReferences": {}
}